{
    "_format": "hh-sol-artifact-1",
    "contractName": "SupplyChain",
    "sourceName": "contracts/SupplyChain.sol",
    "abi": [
        {
            "anonymous": false,
            "inputs": [
                {
                    "indexed": false,
                    "internalType": "uint256",
                    "name": "medicineId",
                    "type": "uint256"
                },
                {
                    "indexed": false,
                    "internalType": "address",
                    "name": "winner",
                    "type": "address"
                },
                {
                    "indexed": false,
                    "internalType": "uint256",
                    "name": "winningBid",
                    "type": "uint256"
                }
            ],
            "name": "AuctionEnded",
            "type": "event"
        },
        {
            "anonymous": false,
            "inputs": [
                {
                    "indexed": false,
                    "internalType": "uint256",
                    "name": "medicineId",
                    "type": "uint256"
                },
                {
                    "indexed": false,
                    "internalType": "uint256",
                    "name": "basePrice",
                    "type": "uint256"
                }
            ],
            "name": "AuctionStarted",
            "type": "event"
        },
        {
            "anonymous": false,
            "inputs": [
                {
                    "indexed": false,
                    "internalType": "uint256",
                    "name": "id",
                    "type": "uint256"
                },
                {
                    "indexed": false,
                    "internalType": "string",
                    "name": "name",
                    "type": "string"
                },
                {
                    "indexed": false,
                    "internalType": "uint256",
                    "name": "quantity",
                    "type": "uint256"
                },
                {
                    "indexed": false,
                    "internalType": "uint256",
                    "name": "basePrice",
                    "type": "uint256"
                }
            ],
            "name": "MedicineAdded",
            "type": "event"
        },
        {
            "anonymous": false,
            "inputs": [
                {
                    "indexed": false,
                    "internalType": "uint256",
                    "name": "medicineId",
                    "type": "uint256"
                },
                {
                    "indexed": false,
                    "internalType": "address",
                    "name": "bidder",
                    "type": "address"
                },
                {
                    "indexed": false,
                    "internalType": "uint256",
                    "name": "bidAmount",
                    "type": "uint256"
                }
            ],
            "name": "NewBid",
            "type": "event"
        },
        {
            "inputs": [
                {
                    "internalType": "string",
                    "name": "_name",
                    "type": "string"
                },
                {
                    "internalType": "string",
                    "name": "_description",
                    "type": "string"
                },
                {
                    "internalType": "uint256",
                    "name": "_quantity",
                    "type": "uint256"
                },
                {
                    "internalType": "uint256",
                    "name": "_basePrice",
                    "type": "uint256"
                }
            ],
            "name": "addMedicine",
            "outputs": [],
            "stateMutability": "nonpayable",
            "type": "function"
        },
        {
            "inputs": [
                {
                    "internalType": "uint256",
                    "name": "",
                    "type": "uint256"
                }
            ],
            "name": "auctions",
            "outputs": [
                {
                    "internalType": "uint256",
                    "name": "medicineId",
                    "type": "uint256"
                },
                {
                    "internalType": "uint256",
                    "name": "highestBid",
                    "type": "uint256"
                },
                {
                    "internalType": "address",
                    "name": "highestBidder",
                    "type": "address"
                },
                {
                    "internalType": "bool",
                    "name": "active",
                    "type": "bool"
                }
            ],
            "stateMutability": "view",
            "type": "function"
        },
        {
            "inputs": [
                {
                    "internalType": "uint256",
                    "name": "_medicineId",
                    "type": "uint256"
                }
            ],
            "name": "endAuction",
            "outputs": [],
            "stateMutability": "nonpayable",
            "type": "function"
        },
        {
            "inputs": [],
            "name": "getAllMedicines",
            "outputs": [
                {
                    "components": [
                        {
                            "internalType": "uint256",
                            "name": "id",
                            "type": "uint256"
                        },
                        {
                            "internalType": "string",
                            "name": "name",
                            "type": "string"
                        },
                        {
                            "internalType": "string",
                            "name": "description",
                            "type": "string"
                        },
                        {
                            "internalType": "uint256",
                            "name": "quantity",
                            "type": "uint256"
                        },
                        {
                            "internalType": "uint256",
                            "name": "basePrice",
                            "type": "uint256"
                        },
                        {
                            "internalType": "address",
                            "name": "owner",
                            "type": "address"
                        },
                        {
                            "internalType": "bool",
                            "name": "onAuction",
                            "type": "bool"
                        }
                    ],
                    "internalType": "struct SupplyChain.Medicine[]",
                    "name": "",
                    "type": "tuple[]"
                }
            ],
            "stateMutability": "view",
            "type": "function"
        },
        {
            "inputs": [],
            "name": "medicineCount",
            "outputs": [
                {
                    "internalType": "uint256",
                    "name": "",
                    "type": "uint256"
                }
            ],
            "stateMutability": "view",
            "type": "function"
        },
        {
            "inputs": [
                {
                    "internalType": "uint256",
                    "name": "",
                    "type": "uint256"
                }
            ],
            "name": "medicines",
            "outputs": [
                {
                    "internalType": "uint256",
                    "name": "id",
                    "type": "uint256"
                },
                {
                    "internalType": "string",
                    "name": "name",
                    "type": "string"
                },
                {
                    "internalType": "string",
                    "name": "description",
                    "type": "string"
                },
                {
                    "internalType": "uint256",
                    "name": "quantity",
                    "type": "uint256"
                },
                {
                    "internalType": "uint256",
                    "name": "basePrice",
                    "type": "uint256"
                },
                {
                    "internalType": "address",
                    "name": "owner",
                    "type": "address"
                },
                {
                    "internalType": "bool",
                    "name": "onAuction",
                    "type": "bool"
                }
            ],
            "stateMutability": "view",
            "type": "function"
        },
        {
            "inputs": [
                {
                    "internalType": "uint256",
                    "name": "_medicineId",
                    "type": "uint256"
                }
            ],
            "name": "placeBid",
            "outputs": [],
            "stateMutability": "payable",
            "type": "function"
        },
        {
            "inputs": [
                {
                    "internalType": "uint256",
                    "name": "_medicineId",
                    "type": "uint256"
                }
            ],
            "name": "startAuction",
            "outputs": [],
            "stateMutability": "nonpayable",
            "type": "function"
        }
    ],
    "bytecode": "0x6080604052348015600f57600080fd5b50611cef8061001f6000396000f3fe60806040526004361061007b5760003560e01c806368f2b1d21161004e57806368f2b1d21461013d5780639979ef4514610168578063b9a2de3a14610184578063c85e766d146101ad5761007b565b8063065de74c146100805780632ba25bdc146100a95780634dafd490146100d2578063571a26a0146100fd575b600080fd5b34801561008c57600080fd5b506100a760048036038101906100a29190611062565b6101f0565b005b3480156100b557600080fd5b506100d060048036038101906100cb91906111d5565b610445565b005b3480156100de57600080fd5b506100e76105b7565b6040516100f49190611283565b60405180910390f35b34801561010957600080fd5b50610124600480360381019061011f9190611062565b6105bd565b60405161013494939291906112fa565b60405180910390f35b34801561014957600080fd5b5061015261061a565b60405161015f9190611550565b60405180910390f35b610182600480360381019061017d9190611062565b61089b565b005b34801561019057600080fd5b506101ab60048036038101906101a69190611062565b610b02565b005b3480156101b957600080fd5b506101d460048036038101906101cf9190611062565b610e44565b6040516101e797969594939291906115bc565b60405180910390f35b3373ffffffffffffffffffffffffffffffffffffffff166001600083815260200190815260200160002060050160009054906101000a900473ffffffffffffffffffffffffffffffffffffffff1673ffffffffffffffffffffffffffffffffffffffff1614610294576040517f08c379a000000000000000000000000000000000000000000000000000000000815260040161028b90611685565b60405180910390fd5b6001600082815260200190815260200160002060050160149054906101000a900460ff16156102f8576040517f08c379a00000000000000000000000000000000000000000000000000000000081526004016102ef906116f1565b60405180910390fd5b600180600083815260200190815260200160002060050160146101000a81548160ff021916908315150217905550604051806080016040528082815260200160008152602001600073ffffffffffffffffffffffffffffffffffffffff1681526020016001151581525060026000838152602001908152602001600020600082015181600001556020820151816001015560408201518160020160006101000a81548173ffffffffffffffffffffffffffffffffffffffff021916908373ffffffffffffffffffffffffffffffffffffffff16021790555060608201518160020160146101000a81548160ff0219169083151502179055509050507ff8910119ddbef5440c54532457dfe8250a10ed39e583292818f44724b9e1344c81600160008481526020019081526020016000206004015460405161043a929190611711565b60405180910390a150565b60008081548092919061045790611769565b91905055506040518060e0016040528060005481526020018581526020018481526020018381526020018281526020013373ffffffffffffffffffffffffffffffffffffffff1681526020016000151581525060016000805481526020019081526020016000206000820151816000015560208201518160010190816104dd91906119bd565b5060408201518160020190816104f391906119bd565b50606082015181600301556080820151816004015560a08201518160050160006101000a81548173ffffffffffffffffffffffffffffffffffffffff021916908373ffffffffffffffffffffffffffffffffffffffff16021790555060c08201518160050160146101000a81548160ff0219169083151502179055509050507fefad3d115b4ae90874e0f9a8055898ef5a907e66523a156afdc2ba98a82cfc8a6000548584846040516105a99493929190611a8f565b60405180910390a150505050565b60005481565b60026020528060005260406000206000915090508060000154908060010154908060020160009054906101000a900473ffffffffffffffffffffffffffffffffffffffff16908060020160149054906101000a900460ff16905084565b60606000805467ffffffffffffffff811115610639576106386110aa565b5b60405190808252806020026020018201604052801561067257816020015b61065f610fc3565b8152602001906001900390816106575790505b5090506000600190505b600054811161089357600160008281526020019081526020016000206040518060e0016040529081600082015481526020016001820180546106bd906117e0565b80601f01602080910402602001604051908101604052809291908181526020018280546106e9906117e0565b80156107365780601f1061070b57610100808354040283529160200191610736565b820191906000526020600020905b81548152906001019060200180831161071957829003601f168201915b5050505050815260200160028201805461074f906117e0565b80601f016020809104026020016040519081016040528092919081815260200182805461077b906117e0565b80156107c85780601f1061079d576101008083540402835291602001916107c8565b820191906000526020600020905b8154815290600101906020018083116107ab57829003601f168201915b5050505050815260200160038201548152602001600482015481526020016005820160009054906101000a900473ffffffffffffffffffffffffffffffffffffffff1673ffffffffffffffffffffffffffffffffffffffff1673ffffffffffffffffffffffffffffffffffffffff1681526020016005820160149054906101000a900460ff161515151581525050826001836108649190611adb565b8151811061087557610874611b0f565b5b6020026020010181905250808061088b90611769565b91505061067c565b508091505090565b6002600082815260200190815260200160002060020160149054906101000a900460ff166108fe576040517f08c379a00000000000000000000000000000000000000000000000000000000081526004016108f590611b8a565b60405180910390fd5b60026000828152602001908152602001600020600101543411610956576040517f08c379a000000000000000000000000000000000000000000000000000000000815260040161094d90611bf6565b60405180910390fd5b600073ffffffffffffffffffffffffffffffffffffffff166002600083815260200190815260200160002060020160009054906101000a900473ffffffffffffffffffffffffffffffffffffffff1673ffffffffffffffffffffffffffffffffffffffff1614610a54576002600082815260200190815260200160002060020160009054906101000a900473ffffffffffffffffffffffffffffffffffffffff1673ffffffffffffffffffffffffffffffffffffffff166108fc60026000848152602001908152602001600020600101549081150290604051600060405180830381858888f19350505050158015610a52573d6000803e3d6000fd5b505b346002600083815260200190815260200160002060010181905550336002600083815260200190815260200160002060020160006101000a81548173ffffffffffffffffffffffffffffffffffffffff021916908373ffffffffffffffffffffffffffffffffffffffff1602179055507f558a0d5d5468d74b0db24c74eb348b42271c2ebb4c9e953ced38aaed95fa4361813334604051610af793929190611c16565b60405180910390a150565b3373ffffffffffffffffffffffffffffffffffffffff166001600083815260200190815260200160002060050160009054906101000a900473ffffffffffffffffffffffffffffffffffffffff1673ffffffffffffffffffffffffffffffffffffffff1614610ba6576040517f08c379a0000000000000000000000000000000000000000000000000000000008152600401610b9d90611c99565b60405180910390fd5b6002600082815260200190815260200160002060020160149054906101000a900460ff16610c09576040517f08c379a0000000000000000000000000000000000000000000000000000000008152600401610c0090611b8a565b60405180910390fd5b60006002600083815260200190815260200160002060020160146101000a81548160ff02191690831515021790555060006001600083815260200190815260200160002060050160146101000a81548160ff021916908315150217905550600073ffffffffffffffffffffffffffffffffffffffff166002600083815260200190815260200160002060020160009054906101000a900473ffffffffffffffffffffffffffffffffffffffff1673ffffffffffffffffffffffffffffffffffffffff1614610dba576002600082815260200190815260200160002060020160009054906101000a900473ffffffffffffffffffffffffffffffffffffffff166001600083815260200190815260200160002060050160006101000a81548173ffffffffffffffffffffffffffffffffffffffff021916908373ffffffffffffffffffffffffffffffffffffffff1602179055503373ffffffffffffffffffffffffffffffffffffffff166108fc60026000848152602001908152602001600020600101549081150290604051600060405180830381858888f19350505050158015610db8573d6000803e3d6000fd5b505b7fd2aa34a4fdbbc6dff6a3e56f46e0f3ae2a31d7785ff3487aa5c95c642acea501816002600084815260200190815260200160002060020160009054906101000a900473ffffffffffffffffffffffffffffffffffffffff166002600085815260200190815260200160002060010154604051610e3993929190611c16565b60405180910390a150565b6001602052806000526040600020600091509050806000015490806001018054610e6d906117e0565b80601f0160208091040260200160405190810160405280929190818152602001828054610e99906117e0565b8015610ee65780601f10610ebb57610100808354040283529160200191610ee6565b820191906000526020600020905b815481529060010190602001808311610ec957829003601f168201915b505050505090806002018054610efb906117e0565b80601f0160208091040260200160405190810160405280929190818152602001828054610f27906117e0565b8015610f745780601f10610f4957610100808354040283529160200191610f74565b820191906000526020600020905b815481529060010190602001808311610f5757829003601f168201915b5050505050908060030154908060040154908060050160009054906101000a900473ffffffffffffffffffffffffffffffffffffffff16908060050160149054906101000a900460ff16905087565b6040518060e001604052806000815260200160608152602001606081526020016000815260200160008152602001600073ffffffffffffffffffffffffffffffffffffffff1681526020016000151581525090565b6000604051905090565b600080fd5b600080fd5b6000819050919050565b61103f8161102c565b811461104a57600080fd5b50565b60008135905061105c81611036565b92915050565b60006020828403121561107857611077611022565b5b60006110868482850161104d565b91505092915050565b600080fd5b600080fd5b6000601f19601f8301169050919050565b7f4e487b7100000000000000000000000000000000000000000000000000000000600052604160045260246000fd5b6110e282611099565b810181811067ffffffffffffffff82111715611101576111006110aa565b5b80604052505050565b6000611114611018565b905061112082826110d9565b919050565b600067ffffffffffffffff8211156111405761113f6110aa565b5b61114982611099565b9050602081019050919050565b82818337600083830152505050565b600061117861117384611125565b61110a565b90508281526020810184848401111561119457611193611094565b5b61119f848285611156565b509392505050565b600082601f8301126111bc576111bb61108f565b5b81356111cc848260208601611165565b91505092915050565b600080600080608085870312156111ef576111ee611022565b5b600085013567ffffffffffffffff81111561120d5761120c611027565b5b611219878288016111a7565b945050602085013567ffffffffffffffff81111561123a57611239611027565b5b611246878288016111a7565b93505060406112578782880161104d565b92505060606112688782880161104d565b91505092959194509250565b61127d8161102c565b82525050565b60006020820190506112986000830184611274565b92915050565b600073ffffffffffffffffffffffffffffffffffffffff82169050919050565b60006112c98261129e565b9050919050565b6112d9816112be565b82525050565b60008115159050919050565b6112f4816112df565b82525050565b600060808201905061130f6000830187611274565b61131c6020830186611274565b61132960408301856112d0565b61133660608301846112eb565b95945050505050565b600081519050919050565b600082825260208201905092915050565b6000819050602082019050919050565b6113748161102c565b82525050565b600081519050919050565b600082825260208201905092915050565b60005b838110156113b4578082015181840152602081019050611399565b60008484015250505050565b60006113cb8261137a565b6113d58185611385565b93506113e5818560208601611396565b6113ee81611099565b840191505092915050565b611402816112be565b82525050565b611411816112df565b82525050565b600060e08301600083015161142f600086018261136b565b506020830151848203602086015261144782826113c0565b9150506040830151848203604086015261146182826113c0565b9150506060830151611476606086018261136b565b506080830151611489608086018261136b565b5060a083015161149c60a08601826113f9565b5060c08301516114af60c0860182611408565b508091505092915050565b60006114c68383611417565b905092915050565b6000602082019050919050565b60006114e68261133f565b6114f0818561134a565b9350836020820285016115028561135b565b8060005b8581101561153e578484038952815161151f85826114ba565b945061152a836114ce565b925060208a01995050600181019050611506565b50829750879550505050505092915050565b6000602082019050818103600083015261156a81846114db565b905092915050565b600082825260208201905092915050565b600061158e8261137a565b6115988185611572565b93506115a8818560208601611396565b6115b181611099565b840191505092915050565b600060e0820190506115d1600083018a611274565b81810360208301526115e38189611583565b905081810360408301526115f78188611583565b90506116066060830187611274565b6116136080830186611274565b61162060a08301856112d0565b61162d60c08301846112eb565b98975050505050505050565b7f4f6e6c79206f776e65722063616e2073746172742061756374696f6e00000000600082015250565b600061166f601c83611572565b915061167a82611639565b602082019050919050565b6000602082019050818103600083015261169e81611662565b9050919050565b7f416c7265616479206f6e2061756374696f6e0000000000000000000000000000600082015250565b60006116db601283611572565b91506116e6826116a5565b602082019050919050565b6000602082019050818103600083015261170a816116ce565b9050919050565b60006040820190506117266000830185611274565b6117336020830184611274565b9392505050565b7f4e487b7100000000000000000000000000000000000000000000000000000000600052601160045260246000fd5b60006117748261102c565b91507fffffffffffffffffffffffffffffffffffffffffffffffffffffffffffffffff82036117a6576117a561173a565b5b600182019050919050565b7f4e487b7100000000000000000000000000000000000000000000000000000000600052602260045260246000fd5b600060028204905060018216806117f857607f821691505b60208210810361180b5761180a6117b1565b5b50919050565b60008190508160005260206000209050919050565b60006020601f8301049050919050565b600082821b905092915050565b6000600883026118737fffffffffffffffffffffffffffffffffffffffffffffffffffffffffffffffff82611836565b61187d8683611836565b95508019841693508086168417925050509392505050565b6000819050919050565b60006118ba6118b56118b08461102c565b611895565b61102c565b9050919050565b6000819050919050565b6118d48361189f565b6118e86118e0826118c1565b848454611843565b825550505050565b600090565b6118fd6118f0565b6119088184846118cb565b505050565b5b8181101561192c576119216000826118f5565b60018101905061190e565b5050565b601f8211156119715761194281611811565b61194b84611826565b8101602085101561195a578190505b61196e61196685611826565b83018261190d565b50505b505050565b600082821c905092915050565b600061199460001984600802611976565b1980831691505092915050565b60006119ad8383611983565b9150826002028217905092915050565b6119c68261137a565b67ffffffffffffffff8111156119df576119de6110aa565b5b6119e982546117e0565b6119f4828285611930565b600060209050601f831160018114611a275760008415611a15578287015190505b611a1f85826119a1565b865550611a87565b601f198416611a3586611811565b60005b82811015611a5d57848901518255600182019150602085019450602081019050611a38565b86831015611a7a5784890151611a76601f891682611983565b8355505b6001600288020188555050505b505050505050565b6000608082019050611aa46000830187611274565b8181036020830152611ab68186611583565b9050611ac56040830185611274565b611ad26060830184611274565b95945050505050565b6000611ae68261102c565b9150611af18361102c565b9250828203905081811115611b0957611b0861173a565b5b92915050565b7f4e487b7100000000000000000000000000000000000000000000000000000000600052603260045260246000fd5b7f41756374696f6e206e6f74206163746976650000000000000000000000000000600082015250565b6000611b74601283611572565b9150611b7f82611b3e565b602082019050919050565b60006020820190508181036000830152611ba381611b67565b9050919050565b7f426964206d757374206265206869676865720000000000000000000000000000600082015250565b6000611be0601283611572565b9150611beb82611baa565b602082019050919050565b60006020820190508181036000830152611c0f81611bd3565b9050919050565b6000606082019050611c2b6000830186611274565b611c3860208301856112d0565b611c456040830184611274565b949350505050565b7f4f6e6c79206f776e65722063616e20656e642061756374696f6e000000000000600082015250565b6000611c83601a83611572565b9150611c8e82611c4d565b602082019050919050565b60006020820190508181036000830152611cb281611c76565b905091905056fea2646970667358221220f8c696128fddfc878524c0b46755bd9c000a73b51d6fb549dfc74a3a3a86362364736f6c634300081c0033",
    "linkReferences": {},
    "deployedLinkReferences": {}
}